:020000040000FA
:100000000C9474000C949C000C949C000C949C0028
:100010000C949C000C949C000C949C000C949C00F0
:100020000C949C000C94BA0C0C949C000C94DF0A69
:100030000C949C000C949C000C949C000C949C00D0
:100040000C943D0A0C949C000C94AD0A0C94870A05
:100050000C949C000C949C000C949C000C949C00B0
:100060000C949B0B0C949C00084AD73B3BCE016E32
:1000700084BCBFFDC12F3D6C74319ABD56833DDAFF
:100080003D00C77F11BED9E4BB4C3E916BAAAABE0E
:10009000000000803F0000000000240027002A002C
:1000A00000000000250028002B00040404040404C0
:1000B0000404020202020202030303030303010217
:1000C00004081020408001020408102001020408E6
:1000D00010200000000800020100000304070000D7
:1000E0000000000000002C0D11241FBECFEFD8E04F
:1000F000DEBFCDBF11E0A0E0B1E0E6E5F7E202C06F
:1001000005900D92AE38B107D9F723E0AEE8B1E023
:1001100001C01D92A33BB207E1F710E0C4E7D0E0B5
:1001200004C02197FE010E94A313C337D107C9F76A
:100130000E94B60D0C94A9130C94000090E0FC01F1
:10014000EE52FF4F2491FC01E254FF4F3491FC0129
:10015000E655FF4FE491EE23C9F0222339F0233016
:1001600001F1A8F4213019F1223029F1F0E0EE0F6D
:10017000FF1FE056FF4FA591B4918FB7F894EC9113
:10018000611126C030953E233C938FBF08952730E0
:10019000A9F02830C9F0243049F7809180008F7D84
:1001A00003C0809180008F7780938000DFCF84B57B
:1001B0008F7784BDDBCF84B58F7DFBCF8091B0007E
:1001C0008F778093B000D2CF8091B0008F7DF9CF30
:1001D0003E2BDACF3FB7F89480911B0290911C021E
:1001E000A0911D02B0911E0226B5A89B05C02F3F0D
:1001F00019F00196A11DB11D3FBFBA2FA92F982F4D
:100200008827BC01CD01620F711D811D911D42E047
:10021000660F771F881F991F4A95D1F708958F920F
:100220009F92AF92BF92CF92DF92EF92FF924B01DB
:100230005C010E94EA006B017C010E94EA006C19DB
:100240007D098E099F09683E734081059105A8F3D9
:1002500021E0821A9108A108B10888EEC80E83E057
:10026000D81EE11CF11C81149104A104B10429F7EA
:10027000FF90EF90DF90CF90BF90AF909F908F90C6
:10028000089508950895AF92BF92CF92DF92EF92B2
:10029000FF920F931F93CF93DF936C017B018B0130
:1002A000040F151FEB015E01AE18BF08C017D10780
:1002B00059F06991D601ED91FC910190F081E02D0A
:1002C000C6010995892B79F7C501DF91CF911F915F
:1002D0000F91FF90EF90DF90CF90BF90AF90089577
:1002E000FC01538D448D252F30E0842F90E0821B3C
:1002F000930B541710F0CF96089501970895FC01C1
:10030000918D828D981761F0A28DAE0FBF2FB11D18
:100310005D968C91928D9F5F9F73928F90E0089570
:100320008FEF9FEF0895FC01918D828D981731F02A
:10033000828DE80FF11D858D90E008958FEF9FEF7E
:100340000895FC01918D228D892F90E0805C9F4F54
:10035000821B91098F73992708958FE692E00E947E
:10036000A10121E0892B09F420E0822F089580E08B
:1003700090E0892B29F00E94AD0181110C940000BE
:100380000895FC01A48DA80FB92FB11DA35ABF4F2A
:100390002C91848D90E001968F739927848FA68984
:1003A000B7892C93A089B1898C91837080648C93D8
:1003B000938D848D981306C00288F389E02D808187
:1003C0008F7D80830895EF92FF920F931F93CF93B9
:1003D000DF93EC0181E0888F9B8D8C8D98131AC080
:1003E000E889F989808185FF15C09FB7F894EE8967
:1003F000FF896083E889F9898081837080648083C4
:100400009FBF81E090E0DF91CF911F910F91FF900E
:10041000EF900895F62E0B8D10E00F5F1F4F0F73B6
:100420001127E02E8C8D8E110CC00FB607FCFACF71
:10043000E889F989808185FFF5CFCE010E94C1014D
:10044000F1CFEB8DEC0FFD2FF11DE35AFF4FF08242
:100450009FB7F8940B8FEA89FB8980818062CFCFA8
:10046000CF93DF93EC01888D8823B9F0AA89BB89EB
:10047000E889F9898C9185FD03C0808186FD0DC0D6
:100480000FB607FCF7CF8C9185FFF2CF808185FFF7
:10049000EDCFCE010E94C101E9CFDF91CF91089548
:1004A0002091DB01260F3327331F21323105ECF475
:1004B00020914502FC0190E080E0243069F082E068
:1004C0000895A091DB012191AC0145545E4FA40F2A
:1004D000B52FB11D2C930196861798F38091DB01FF
:1004E000680F6093DB0180E0089581E00895109229
:1004F000450281E08093440210921F0261E082E194
:100500000E949E0061E083E10E949E00E9EBF0E022
:1005100080818E7F808380818D7F808388E480933B
:10052000B80085E48093BC000895CF93DF9391E0F9
:100530009093BA018823B9F0C091B800D091BA0065
:100540008091BC008A7B8093BC0060E082E10E94C5
:100550009E0060E083E10E949E000E947702D0939B
:10056000BA00C093B800DF91CF9108958F929F9207
:10057000AF92BF92CF92DF92EF92FF920F931F93B1
:10058000CF93DF93D0916E02D13208F0D7C0182FED
:10059000C0916D020E94EA006B017C0180914502CE
:1005A00081116BC082E080934502109344028FEF6B
:1005B0008093430210924202D0934102ADE4B2E034
:1005C000E1E2F2E080E0D81391C010922002809125
:1005D0002002CC0FC82BC093200280911F028130D3
:1005E00009F088C010921F020E94EA006B017C0192
:1005F000809120028093BB00809147029091480235
:10060000A0914902B0914A02892B8A2B8B2BA1F031
:100610000E94EA000091470210914802209149028D
:1006200030914A026C197D098E099F090617170738
:100630002807390708F442C08091BC0083FDD8CF59
:1006400085EC8093BC000E94EA006B017C018091E4
:100650004502823009F450C0809143028F3F09F473
:100660006FC080914302803209F46CC080914302D4
:10067000803309F469C084E026C0809147029091DC
:100680004802A0914902B0914A02892B8A2B8B2BF8
:1006900009F484CF0E94EA008090470290904802BB
:1006A000A0904902B0904A026C197D098E099F09F9
:1006B00086169706A806B90608F070CF8091460204
:1006C0000E94950285E010924C0210926E021092E8
:1006D0004B02DF91CF911F910F91FF90EF90DF9030
:1006E000CF90BF90AF909F908F9008959D919193E0
:1006F0008F5F69CF85EEA5CF809147029091480228
:10070000A0914902B0914A02892B8A2B8B2B09F4C4
:100710009ECF0E94EA00009147021091480220916A
:10072000490230914A026C197D098E099F0906170A
:1007300017072807390708F08ACFC0CF81E0C3CF59
:1007400080E0C1CF82E0BFCF83E0BDCF0895E091CC
:10075000040280910302E81730F4F0E0E656FE4F01
:10076000808190E008958FEF9FEF089590910402AB
:10077000809103022FEF3FEF981748F4E92FF0E044
:10078000E656FE4F208130E09F5F90930402C9013E
:1007900008958091030290910402891B990B08959A
:1007A000CF92DF92EF92FF920F931F93CF93DF933D
:1007B0007C01CB018A0120914B02222389F0EB01BD
:1007C0006B01C40ED51ECC15DD0569F06991D7010A
:1007D000ED91FC910190F081E02DC7010995F3CFD7
:1007E000642F0E945002C801DF91CF911F910F9199
:1007F000FF90EF90DF90CF900895CF93DF931F92FB
:10080000CDB7DEB7698320914B022223F9F0209106
:100810006E02203258F021E030E0FC013383228365
:1008200090E080E00F90DF91CF91089580914C028D
:10083000E82FF0E0E35BFD4F998190838F5F809319
:100840004C0280936E0281E090E0ECCF61E0CE013B
:1008500001960E945002F7CFCF93DF93EA0191E017
:1008600090934B0280936D0210924C0210926E0294
:100870008CE093E00E94FD0368818CE093E00E948D
:10088000FD0381E00E94B60291E0811190E0892F82
:10089000DF91CF91089590E080E00895FC010190F0
:1008A0000020E9F73197AF01481B590BBC018FE6D7
:1008B00092E00C9443018F929F92AF92BF920F935C
:1008C0001F93CF93DF93CDB7DEB7A1970FB6F89400
:1008D000DEBF0FBECDBF19A2423008F44AE08E0140
:1008E0000F5D1F4F842E912CB12CA12CA5019401DA
:1008F0000E945610E62FB901CA01EA30F4F4E05D17
:10090000D801EE938D01232B242B252B79F790E032
:1009100080E0109719F0CD010E944E04A1960FB609
:10092000F894DEBF0FBECDBFDF91CF911F910F9125
:10093000BF90AF909F908F900895E95CE1CF2F9288
:100940003F924F925F926F927F928F929F92AF925F
:10095000BF92CF92DF92EF92FF920F931F93CF93AC
:10096000DF93CDB7DEB72B970FB6F894DEBF0FBE7F
:10097000CDBFD82EC62EF42E3D832C8318018FB701
:10098000F8944090170250901802609019027090ED
:100990001A028FBF2D2D220F2B83042FE12C1B86D3
:1009A00011E050E05A834983C101B0E0A0E08E839A
:1009B0009F83A887B98710934B02D0926D02109243
:1009C0004C0210926E026C2D8CE093E00E94FD03AD
:1009D00081E00E94B60210934B0210924C021092DA
:1009E0006E020E94EA004B015C0180914502811178
:1009F0006DC00A87013210F090E29A871093450289
:100A000010934402AFEFA0934302109242028A85F2
:100A10008150809341021093200280912002BB817B
:100A20008B2B8093200280911F02813009F092C0AD
:100A300010921F020E94EA004B015C01809120028B
:100A40008093BB008091470290914802A091490297
:100A5000B0914A02892B8A2B8B2BA1F00E94EA00CD
:100A600020914702309148024091490250914A0238
:100A7000681979098A099B09261737074807590712
:100A800008F445C08091BC0083FDD8CF25EC2093AD
:100A9000BC000E94EA004B015C018091450281305C
:100AA00009F45CC0809142024A85841718F4509181
:100AB00042025A87A1E2B2E0EAE9F1E080E09A85D9
:100AC000891751F19D9191938F5FF9CF80914702E2
:100AD00090914802A0914902B0914A02892B8A2B39
:100AE0008B2B09F482CF0E94EA00209147023091BB
:100AF00048024091490250914A02681979098A09CD
:100B00009B09261737074807590708F06ECF8091D1
:100B100046020E9495021A8610920402AA85A093AA
:100B200003029091030280910402981709F451C0C6
:100B300021143104A9F58CE093E00E94B603EC8106
:100B4000FD81BB85EB0FF11DB7FDFA958083BF5F7B
:100B5000BB87E7CF35EE3093BC009BCF8091470237
:100B600090914802A0914902B0914A02892B8A2BA8
:100B70008B2B09F492CF0E94EA002091470230911A
:100B800048024091490250914A02681979098A093C
:100B90009B09261737074807590708F07ECFB7CFBC
:100BA0002FB7F8948091170290911802A091190222
:100BB000B0911A022FBF84199509A609B7092E8191
:100BC0003F814885598582179307A407B50708F424
:100BD000B2CFEF0C0F19EF1408F4EDCE211431044D
:100BE00011F18FB7F894409117025091180260915B
:100BF000190270911A028FBF4419550966097709C5
:100C0000C101B0E0A0E0481759076A077B0758F018
:100C10003B85832F330F990B49815A8184179507A0
:100C200014F45FEF5B878B852B960FB6F894DEBFCD
:100C30000FBECDBFDF91CF911F910F91FF90EF902D
:100C4000DF90CF90BF90AF909F908F907F906F90EC
:100C50005F904F903F902F900895BF92CF92DF9278
:100C6000EF92FF920F931F93CF93DF9300D0CDB7F6
:100C7000DEB7F82EE62EC42EB22ED02E08EE13E0EC
:100C80009E012E5F3F4F41E00E949F04882399F10F
:100C90008C2D8B19990BAC014F5F5F4F81E090E079
:100CA00002C0880F991FBA94E2F70197042E01C081
:100CB000880F0A94EAF70D2D01C0000F4A95EAF754
:100CC000982F90952A8192238023892B8A83898368
:100CD000AE014F5F5F4F6E2D8F2D0E942C040F9041
:100CE0000F90DF91CF911F910F91FF90EF90DF90C8
:100CF000CF90BF90089580E0F2CF85ED8093BC0047
:100D00008091470290914802A0914902B0914A0215
:100D10000796A11DB11D23E0B695A79597958795D8
:100D20002A95D1F72091BC0024FD03C01092450202
:100D30000895409147025091480260914902709194
:100D40004A02452B462B472B69F30097A105B105B5
:100D500041F02AE22A95F1F700C00197A109B109F3
:100D6000E1CF809146020C9495022F923F924F92D0
:100D70005F926F927F928F929F92AF92BF92CF922B
:100D8000DF92EF92FF920F931F93CF93DF93CDB734
:100D9000DEB7A2970FB6F894DEBF0FBECDBF789432
:100DA00008EE13E02EE933E04EE06BE380919D0303
:100DB0000E949F0400919E0310919F03102701271A
:100DC00010271093990100939801E090A003F090F0
:100DD000A103FE24EF24FE24F0929701E0929601F5
:100DE0006091A2037091A3037627672776277093FB
:100DF000950160939401A090A603B090A703BA2434
:100E0000AB24BA24B0929301A09292012090A8033F
:100E10003090A9033224232432243092910120926D
:100E200090012091AA033091AB0332272327322768
:100E30003AA329A330938F0120938E01072E000C33
:100E4000880B990B0E94151269877A878B879C877C
:100E5000B701FF0C880B990B0E94151229853A8562
:100E60004B855C850E9407116B017C01B501BB0CB1
:100E7000880B990B0E9415122AE939E140E053E4EE
:100E80000E94871020E030E043E053E40E946B11A1
:100E90006D877E878F87988B60933D0370933E03A9
:100EA00080933F03909340038091590390915A039C
:100EB000A0915B03B0915C038D8B9E8BAF8BB88F41
:100EC0009C01AD016D857E858F8598890E94871074
:100ED0002AE037ED43EA5BE30E94F91220914D03CB
:100EE00030914E0340914F03509150030E9488105F
:100EF0006D8F7E8F8F8F98A323E333E345E652E413
:100F0000C701B6010E94F9122D8D3E8D4F8D58A15B
:100F10000E948710698B7A8B8B8B9C8B6093550317
:100F20007093560380935703909358034090710336
:100F30005090720360907303709074032091750356
:100F400030917603409177035091780329833A8357
:100F50004B835C83A30192016FE672E183E89AE31D
:100F60000E94871029813A814B815C810E94871001
:100F700060935D0370935E0380935F0390936003BF
:100F80002091790330917A0340917B0350917C0347
:100F9000298F3A8F4B8F5C8F49015A01B7FAB09471
:100FA000B7F8B0948092610390926203A0926303B9
:100FB000B09264038092650390926603A0926703E7
:100FC000B0926803BAE0CB2EB7EDDB2EB3EAEB2E7E
:100FD000BBE3FB2EC0926903D0926A03E0926B03DD
:100FE000F0926C03A70196010E94F91220916D0303
:100FF00030916E0340916F03509170030E948810EE
:101000006B017C012AE037ED43EA5BE3C501B401E3
:101010000E94F9124B015C01AC019B01C301B201BA
:101020000E9488106D837E838F839887A501940129
:1010300069817A818B819C810E94881069837A837F
:101040008B839C83C0927D03D0927E03E0927F03CA
:10105000F0928003DC01CB018093810390938203A3
:10106000A0938303B093840320E030E040E05FE38B
:10107000C701B6010E9488102B013C0140928503F4
:10108000509286036092870370928803AC019B01A3
:10109000C701B6010E946B114B015C01809289036C
:1010A00090928A03A0928B03B0928C03A3019201C9
:1010B00069817A818B819C810E946B112B013C019B
:1010C00040928D0350928E0360928F037092900332
:1010D000C0929103D0929203E0929303F092940312
:1010E0002D813E814F81588520939503309396033F
:1010F0004093970350939803A5019401C701B6014B
:101100000E94F9129B01AC01C701B6010E94871031
:1011100060936D0370936E0380936F0390937003DD
:10112000A50194016D817E818F8198850E94F912BD
:101130009B01AC016D817E818F8198850E94871013
:10114000609371037093720380937303909374039D
:10115000A3019201C701B6010E94F9129B01AC01E3
:1011600069817A818B819C810E94871060937503CD
:1011700070937603809377039093780327E137EB9E
:1011800041ED57E3698D7A8D8B8D9C8D0E9488107F
:101190006B017C01A30192016D817E818F81988515
:1011A0000E94F9129B01AC01C701B6010E94871091
:1011B0006093790370937A0380937B0390937C030D
:1011C000A501940169897A898B899C890E94F91209
:1011D0002D8D3E8D4F8D58A10E9488106B017C0192
:1011E000C0924D03D0924E03E0924F03F092500311
:1011F000A301920169897A898B899C890E94F912DD
:101200002D893E894F89588D0E9488109B01AC0121
:101210002093590330935A0340935B0350935C032C
:101220006D857E858F8598890E94871060939903CC
:1012300070939A0380939B0390939C0389A19AA136
:101240006DE77FEF0E947B13072E000C880B990B34
:101250000E941512609345037093460380934703E1
:101260009093480323E333E343E851E469857A85A7
:101270008B859C850E946B116093490370934A0390
:1012800080934B0390934C03B801110F880B990B7B
:101290000E94151229853A854B855C850E940711AD
:1012A0004B015C016627772762197309072E000C32
:1012B000880B990B0E94151220E030E043E053E4C4
:1012C0000E946B1160934103709342038093430328
:1012D000909344032AE037ED43EA5BE30E94F9125E
:1012E0002091510330915203409153035091540384
:1012F0000E94881023E333E343E75FE30E94F9127F
:101300002B013C0120E030E044E353E4C501B4018B
:101310000E94F9122BED3FE049E450E40E946B116A
:101320002DEC3CEC4CE45DE30E94F9129B01AC0116
:10133000C301B2010E94881060935103709352035D
:101340008093530390935403C0921202D0921302DD
:10135000E0921402F0921502C701B6010E94DD115D
:101360009B01603242E07407DCF52091B103E8E8AC
:10137000CE2ED12CC21AD10827FDD394CC0CDD1C63
:10138000CC0CDD1C0D2C000CEE08FF084091B203C4
:1013900028E532E0241B310947FD3395220F331F26
:1013A000220F331F032E000C440B550B2C193D0943
:1013B0004E095F09DB01653B710514F0A4EBB0E059
:1013C000B7FF02C0B0E0A0E00E944E1024EB30E076
:1013D00040E050E00E9424102C0D3D1D4E1D5F1D6D
:1013E000E091B003EC3080F54091B10388E890E0E3
:1013F000841B910947FD9395880F991F880F991FAA
:101400002817390784F04091B20388E592E0841BE5
:10141000910947FD9395880F991F880F991F2817E9
:1014200039070CF4C9010297880F991F4FB7F89438
:101430002E2F30E0F901EE0FFF1FE20FF31FE85EE1
:10144000FC4F928381834FBFA2960FB6F894DEBF04
:101450000FBECDBFDF91CF911F910F91FF90EF9005
:10146000DF90CF90BF90AF909F908F907F906F90C4
:101470005F904F903F902F9008951F920F920FB65C
:101480000F9211242F933F938F939F93AF93BF930A
:101490008091170290911802A0911902B0911A023E
:1014A0003091160223E0230F2D3758F50196A11D28
:1014B000B11D209316028093170290931802A093F7
:1014C0001902B0931A0280911B0290911C02A09104
:1014D0001D02B0911E020196A11DB11D80931B0239
:1014E00090931C02A0931D02B0931E02BF91AF9176
:1014F0009F918F913F912F910F900FBE0F901F9052
:10150000189526E8230F0296A11DB11DD2CF1F9278
:101510000F920FB60F9211242F933F934F935F9327
:101520006F937F938F939F93AF93BF93EF93FF93AB
:101530008FE692E00E94C101FF91EF91BF91AF91C0
:101540009F918F917F916F915F914F913F912F91DB
:101550000F900FBE0F901F9018951F920F920FB60D
:101560000F9211242F938F939F93EF93FF93E0910A
:101570007F02F09180028081E0918502F0918602E5
:1015800082FD1BC09081809188028F5F8F732091B4
:101590008902821741F0E0918802F0E0E159FD4FA5
:1015A000958F80938802FF91EF919F918F912F915A
:1015B0000F900FBE0F901F9018958081F4CF1F924F
:1015C0000F920FB60F9211242F933F934F935F9377
:1015D0006F937F938F939F93AF93BF93CF93DF933B
:1015E000EF93FF938091FE01C0913C03D0E087FF11
:1015F00024C010928500109284008091FE018F5FBC
:101600008093FE018091FE01082E000C990B8C172F
:101610009D0724F48091FE018C30C4F180918400F8
:1016200090918500049680349C4908F47AC080919A
:10163000840090918500049676C08091FE01082E6A
:10164000000C990B8C179D07C4F6E091FE018E2FBC
:10165000EE0F990BFC01EE0FFF1FE80FF91FE85E7C
:10166000FC4F808186FFC9CFE091FE018E2FEE0FE7
:10167000990BFC01EE0FFF1FE80FF91FE85EFC4F0E
:10168000808160E08F730E949E00B7CF209184001C
:1016900030918500E091FE018E2FEE0F990BFC0139
:1016A000EE0FFF1FE80FF91FE85EFC4F818192816A
:1016B000820F931F9093890080938800E091FE0130
:1016C0008E2FEE0F990BFC01EE0FFF1FE80FF91F95
:1016D000E85EFC4F808186FF11C0E091FE018E2FF5
:1016E000EE0F990BFC01EE0FFF1FE80FF91FE85EEC
:1016F000FC4F808161E08F730E949E00FF91EF910B
:10170000DF91CF91BF91AF919F918F917F916F9119
:101710005F914F913F912F910F900FBE0F901F90AF
:10172000189580E49CE990938900809388008FEF5E
:101730008093FE01E3CF1F920F920FB60F921124F8
:101740002F933F934F935F936F937F938F939F93C9
:10175000AF93BF93EF93FF938091B900887F80365A
:1017600009F44AC0F0F5883209F4A7C018F58031B1
:1017700009F49BC0B8F4882309F4F9C0883009F44F
:1017800094C0FF91EF91BF91AF919F918F917F9105
:101790006F915F914F913F912F910F900FBE0F90DE
:1017A0001F901895883109F488C0803251F78093D2
:1017B000430214C0803409F49DC040F48033B9F36F
:1017C0008833F9F68093430285ECB0C0803509F484
:1017D00085C0883509F496C0883499F60E947D0644
:1017E000D0CF883909F48CC038F5883729F050F407
:1017F000883611F0803729F683E0809345021092F5
:10180000FD0157C0883809F47BC0803919F0803851
:1018100009F0B7CF8091FD01803208F071C0E091EE
:10182000FD0181E08E0F8093FD018091BB00F0E00F
:10183000E352FE4F80833DC0803B39F0E0F4803AB4
:1018400009F479C0883A09F09CCF84E0809345027E
:101850001092DC011092DB01E0910102F091020292
:1018600009958091DB0181110FC081E08093DB013C
:101870001092BB0109C0803C09F4A6CF883C09F452
:10188000A3CF883B09F07DCFE091DC0181E08E0F92
:101890008093DC01F0E0E554FE4F80818093BB0033
:1018A0009091DC018091DB0129C08091200280931E
:1018B000BB0085EC8093BC0064CF90914202809184
:1018C0004102981758F5E091420281E08E0F809313
:1018D0004202F0E0EF5DFD4F8081E9CFE0914202EE
:1018E00081E08E0F809342028091BB00F0E0EF5DBB
:1018F000FD4F808390914202809141029817C8F277
:1019000085E8D8CFE091420281E08E0F80934202B9
:101910008091BB00F0E0EF5DFD4F80838091440239
:1019200081115CCF81E080931F0284EA8093BC0028
:101930001092450226CF85EC8093BC0010924502A0
:101940008091FD01803230F4E091FD01F0E0E3523E
:10195000FE4F10826091FD0170E0E091FF01F09177
:1019600000028DED91E009951092FD010ACF1092D1
:10197000430234CF1F920F920FB60F9211242F9370
:101980003F934F935F936F937F938F939F93AF9307
:10199000BF93EF93FF9380910B0290910C02809381
:1019A000B20080910E0290910F02A0911002B091AE
:1019B00011020196A11DB11D80930E0290930F029A
:1019C000A0931002B093110280910E0290910F0229
:1019D000A0911002B09111024091070250910802AB
:1019E0006091090270910A0284179507A607B7074C
:1019F00010F180910D0281111EC081E080930D02D3
:101A000080910E0290910F02A0911002B0911102EC
:101A1000841B950BA60BB70B80930E0290930F02BD
:101A2000A0931002B0931102E0910502F09106021A
:101A3000099510920D02FF91EF91BF91AF919F9187
:101A40008F917F916F915F914F913F912F910F9067
:101A50000FBE0F901F901895109272021092710293
:101A600088EE93E0A0E0B0E080937302909374025C
:101A7000A0937502B093760224E131E030937002B6
:101A800020936F0225EC30E030937C0220937B02A0
:101A900024EC30E030937E0220937D0220EC30E095
:101AA0003093800220937F0221EC30E03093820259
:101AB0002093810222EC30E0309384022093830251
:101AC00026EC30E030938602209385021092880243
:101AD0001092890210928A0210928B0210920F03C8
:101AE00010920E038093100390931103A09312039E
:101AF000B093130386E291E090930D0380930C035F
:101B000080913C038C3070F591E0980F90933C03EA
:101B10008093B00390E0FC01EE0FFF1FE80FF91F68
:101B2000E85EFC4F88EB9BE09283818388E680939C
:101B30009D031092490310924A0310924B03109296
:101B40004C0380E1EDE5F3E0DF01982F1D929A95BB
:101B5000E9F7E0E0F1E0ADE6B3E001900D928A959F
:101B6000E1F708958FEF8093B003E0CFCF93DF9339
:101B700000D0CDB7DEB7789484B5826084BD84B5DB
:101B8000816084BD85B5826085BD85B5816085BD78
:101B900080916E00816080936E0010928100809130
:101BA00081008260809381008091810081608093B8
:101BB0008100809180008160809380008091B100DD
:101BC00084608093B1008091B00081608093B00008
:101BD00080917A00846080937A0080917A0082609C
:101BE00080937A0080917A00816080937A0080915E
:101BF0007A00806880937A001092C1008091B003CF
:101C00008C3008F068C0E1ECF0E02491EDEAF0E0FF
:101C10008491882399F090E0880F991FFC01EA567F
:101C2000FF4FA591B491FC01E056FF4F859194912F
:101C30008FB7F894EC91E22BEC938FBF8091B003B7
:101C4000282F30E0F901EE0FFF1FE20FF31FE85ECF
:101C5000FC4F9081907C936090831092B10310921E
:101C6000B2032CE0622F0E946F13829FB0011124F7
:101C700030E020E0AB01420F531FFA01EE0FFF1FCF
:101C8000E40FF51FE85EFC4F908196FD16C02F5FB4
:101C90003F4F2C30310571F781110FC01092800039
:101CA00082E0809381001092850010928400B19AA6
:101CB00080916F00826080936F00E091B0038E2F5F
:101CC00090E0FC01EE0FFF1FE80FF91FE85EFC4FEC
:101CD000808180648083109204021092030210922B
:101CE0004C0210926E020E94770281E491E0909380
:101CF00002028093010282E491E0909300028093BB
:101D0000FF01E0917F02F091800282E08083E09108
:101D10007B02F0917C021082E0917D02F0917E02C4
:101D20008FEC808310928702E0918302F09184020D
:101D300086E08083E0918102F0918202808180615F
:101D40008083E0918102F0918202808188608083AB
:101D5000E0918102F0918202808180688083E0912D
:101D60008102F091820280818F7D80836CED75E02D
:101D700080E090E00E940F0101E023E042E06BE68A
:101D800080919D030E942D0600E022E044E06BE17B
:101D900080919D030E942D0622E044E06CE1809139
:101DA0009D030E942D06F0909D0308EE13E09E0116
:101DB0002F5F3F4F41E06BE68F2D0E949F0489818A
:101DC0008F7B89838A83AE014E5F5F4F6BE68F2DD9
:101DD0000E942C0482E691E00E944E048FE791E07D
:101DE0000E944E049E012F5F3F4F41E065E78091C6
:101DF0009D030E949F04882339F089818E7790E0AB
:101E00009595879580939E0380919E03843309F472
:101E100018C184E391E00E944E048FE791E00E9494
:101E20004E048FE791E00E944E0464E170E080E090
:101E300090E00E940F0185E090E0A0E0B0E0809388
:101E4000070290930802A0930902B0930A0285EB5F
:101E500096E09093060280930502809170008E7F39
:101E6000809370008091B0008C7F8093B00080914F
:101E7000B100877F8093B1008091B6008F7D809301
:101E8000B600809170008D7F809370008091B100CA
:101E900084608093B1008091B1008C7F8093B10009
:101EA00086E090E090930C0280930B0210920E0259
:101EB00010920F02109210021092110210920D0255
:101EC00080910B0290910C028093B200809170007F
:101ED00081608093700000E010E0C0901202D0900A
:101EE0001302E0901402F0901502A7019601C701B9
:101EF000B6010E946A13882391F082E891E00E9463
:101F00004E048FE791E00E944E040115110529F35C
:101F10000E94AD01882309F30E940000DECF460134
:101F20005701E894B7F82FEF3FEF4FE75FE7C501A0
:101F3000B4010E946A1381110DC02FEF3FEF4FE7EC
:101F40005FE7C501B4010E94661118161CF486E80B
:101F500091E0D5CF2FEF3FEF4FE75FE4C701B60128
:101F60000E94EC1218161CF48AE891E0C8CF2FEFFB
:101F70003FEF4FE75FECC701B6010E94661187FD96
:101F8000F3CF20E030E0A901C701B6010E9466113D
:101F900087FF09C06DE28FE692E00E94E301F7FA45
:101FA000F094F7F8F0942AE037ED43EA5BE3C701D9
:101FB000B6010E9488104B015C010E94E4116B0184
:101FC0007C010E9413129B01AC01C501B4010E9467
:101FD00087104B015C014AE0C701B6010E945B0417
:101FE0006EE28FE692E00E94E30120E030E040E202
:101FF00051E4C501B4010E94F9124B015C010E9439
:10200000E4116B01F12CE12C4AE0C701B6010E94FA
:102010005B04C701B6010E9413129B01AC01C5010C
:10202000B4010E94871020E030E040E251E40E94B9
:10203000F9120E94E41190E080E04AE00E945B0403
:1020400060CF8BE491E0E7CE052E97FB1EF4009461
:102050000E943B1057FD07D00E94561007FC03D08A
:102060004EF40C943B1050954095309521953F4F80
:102070004F4F5F4F089590958095709561957F4F74
:102080008F4F9F4F08950E947810A59F900DB49F89
:10209000900DA49F800D911D11240895B7FF0C94FD
:1020A00043100E944310821B930B0895A1E21A2E45
:1020B000AA1BBB1BFD010DC0AA1FBB1FEE1FFF1FEC
:1020C000A217B307E407F50720F0A21BB30BE40B3C
:1020D000F50B661F771F881F991F1A9469F7609583
:1020E0007095809590959B01AC01BD01CF0108953D
:1020F000A29FB001B39FC001A39F700D811D112449
:10210000911DB29F700D811D1124911D089550588D
:10211000BB27AA270E949F100C94B2120E94A412FF
:1021200038F00E94AB1220F039F49F3F19F426F4E6
:102130000C947A120EF4E095E7FB0C947412E92FDC
:102140000E94C31258F3BA176207730784079507F2
:1021500020F079F4A6F50C94E5120EF4E0950B2E20
:10216000BA2FA02D0B01B90190010C01CA01A001E9
:102170001124FF27591B99F0593F50F4503E68F144
:102180001A16F040A22F232F342F4427585FF3CF85
:10219000469537952795A795F0405395C9F77EF456
:1021A0001F16BA0B620B730B840BBAF09150A1F09F
:1021B000FF0FBB1F661F771F881FC2F70EC0BA0F25
:1021C000621F731F841F48F4879577956795B795AD
:1021D000F7959E3F08F0B0CF9395880F08F09927A8
:1021E000EE0F9795879508950E94A41260F080E8FD
:1021F00091E009F49EEF0E94AB1228F040E851E014
:1022000071F45EEF0CC00C947A120C94E512E92F75
:10221000E0780E94C31240F3092E052AB1F3261775
:1022200037074807590738F00E2E07F8E02569F000
:10223000E025E0640AC0EF6307F8009407FADB01C9
:10224000B9019D01DC01CA01AD01EF930E94821129
:102250000E94B2120E9437115F91552339F02BED85
:102260003FE049E450FD49EC0C9488100895DF9359
:10227000DD27B92FBF7740E85FE31616170648073A
:102280005B0718F4D92F0E94F1129F938F937F93CD
:102290006F930E946613E8E6F0E00E947D120E94B0
:1022A000B2122F913F914F915F910E940C13DD2349
:1022B00051F09058A2EA2AED3FE049EC5FE3D07874
:1022C0005D270E949F10DF910C94B2120E94501261
:1022D00008F481E008950E947F110C94B2120E94CC
:1022E000AB1258F00E94A41240F029F45F3F29F08D
:1022F0000C94741251110C94E6120C947A120E94F0
:10230000C31268F39923B1F3552391F3951B550B31
:10231000BB27AA2762177307840738F09F5F5F4FB8
:10232000220F331F441FAA1FA9F335D00E2E3AF0F7
:10233000E0E832D091505040E695001CCAF72BD00F
:10234000FE2F29D0660F771F881FBB1F2617370760
:102350004807AB07B0E809F0BB0B802DBF01FF2792
:1023600093585F4F3AF09E3F510578F00C947412E9
:102370000C94E6125F3FE4F3983ED4F3869577958C
:102380006795B795F7959F5FC9F7880F911D96954B
:10239000879597F90895E1E0660F771F881FBB1FA7
:1023A000621773078407BA0720F0621B730B840B54
:1023B000BA0BEE1F88F7E09508950E94E411689427
:1023C000B1110C94E61208950E94CB1288F09F5729
:1023D00098F0B92F9927B751B0F0E1F0660F771F49
:1023E000881F991F1AF0BA95C9F714C0B13091F03F
:1023F0000E94E512B1E008950C94E512672F782F42
:102400008827B85F39F0B93FCCF386957795679503
:10241000B395D9F73EF490958095709561957F4F6F
:102420008F4F9F4F0895E89409C097FB3EF4909515
:102430008095709561957F4F8F4F9F4F9923A9F09D
:10244000F92F96E9BB279395F6958795779567952C
:10245000B795F111F8CFFAF4BB0F11F460FF1BC070
:102460006F5F7F4F8F4F9F4F16C0882311F096E903
:1024700011C0772321F09EE8872F762F05C06623B1
:1024800071F096E8862F70E060E02AF09A95660F6A
:10249000771F881FDAF7880F9695879597F9089523
:1024A000990F0008550FAA0BE0E8FEEF1616170665
:1024B000E807F907C0F012161306E407F50798F0CD
:1024C000621B730B840B950B39F40A2661F0232BE6
:1024D000242B252B21F408950A2609F4A140A69562
:1024E0008FEF811D811D089597F99F6780E870E047
:1024F00060E008959FEF80EC0895DF93CF931F93E2
:102500000F93FF92EF92DF927B018C01689406C0DB
:10251000DA2EEF010E940C13FE01E894A59125919B
:10252000359145915591A6F3EF010E949F10FE0150
:102530009701A801DA9469F7DF90EF90FF900F916F
:102540001F91CF91DF91089500240A941616170663
:1025500018060906089500240A9412161306140694
:1025600005060895092E0394000C11F4882352F0F7
:10257000BB0F40F4BF2B11F460FF04C06F5F7F4FAF
:102580008F4F9F4F089557FD9058440F551F59F096
:102590005F3F71F04795880F97FB991F61F09F3F50
:1025A00079F087950895121613061406551FF2CF79
:1025B0004695F1DF08C0161617061806991FF1CFC9
:1025C00086957105610508940895E894BB276627F0
:1025D0007727CB0197F908950E94501208F48FEFE6
:1025E00008959B01AC0160E070E080E89FE30C94EB
:1025F0006B110E940C130C94B2120E94A41238F0BA
:102600000E94AB1220F0952311F00C9474120C94DC
:102610007A1211240C94E6120E94C31270F3959F53
:10262000C1F3950F50E0551F629FF001729FBB27C9
:10263000F00DB11D639FAA27F00DB11DAA1F649F65
:102640006627B00DA11D661F829F2227B00DA11D18
:10265000621F739FB00DA11D621F839FA00D611D9E
:10266000221F749F3327A00D611D231F849F600DBF
:10267000211D822F762F6A2F11249F5750409AF0E8
:10268000F1F088234AF0EE0FFF1FBB1F661F771F74
:10269000881F91505040A9F79E3F510580F00C943F
:1026A00074120C94E6125F3FE4F3983ED4F38695DF
:1026B00077956795B795F795E7959F5FC1F7FE2BDF
:1026C000880F911D9695879597F908959B01AC0108
:1026D0000C94F9120E945012880B990B0895991BC3
:1026E00079E004C0991F961708F0961B881F7A9509
:1026F000C9F78095089597FB072E16F4009407D02C
:1027000077FD09D00E948F1307FC05D03EF4909509
:1027100081959F4F0895709561957F4F0895AA1BED
:10272000BB1B51E107C0AA1FBB1FA617B70710F0BC
:10273000A61BB70B881F991F5A95A9F780959095EE
:10274000BC01CD010895EE0FFF1F0590F491E02D1F
:102750000994F894FFCF0000803F000000000000C3
:1027600000000000803F00000000E3014301700111
:102770003002A1017F01930100000000FD03D0039E
:102780004B04A603C903B603A703E6B2A1E69C89DE
:10279000E8BF9EE68EA5E588B04D50553630353001
:1027A000004D505536303530E5B7B2E68890E58AB1
:1027B0009FE8BF9EE68EA500E6A380E6B58B4D5050
:1027C0005536303530E698AFE590A6E8BF9EE68EE8
:1027D000A52E2E2E000D0A006E616E00696E660039
:0427E0006F766600AA
:107E0000112484B714BE81FFF0D085E080938100F7
:107E100082E08093C00088E18093C10086E0809377
:107E2000C20080E18093C4008EE0C9D0259A86E02C
:107E300020E33CEF91E0309385002093840096BBD3
:107E4000B09BFECF1D9AA8958150A9F7CC24DD24C4
:107E500088248394B5E0AB2EA1E19A2EF3E0BF2EE7
:107E6000A2D0813461F49FD0082FAFD0023811F036
:107E7000013811F484E001C083E08DD089C08234E0
:107E800011F484E103C0853419F485E0A6D080C0E4
:107E9000853579F488D0E82EFF2485D0082F10E0AE
:107EA000102F00270E291F29000F111F8ED06801E7
:107EB0006FC0863521F484E090D080E0DECF843638
:107EC00009F040C070D06FD0082F6DD080E0C81688
:107ED00080E7D80618F4F601B7BEE895C0E0D1E017
:107EE00062D089930C17E1F7F0E0CF16F0E7DF06D8
:107EF00018F0F601B7BEE89568D007B600FCFDCFD4
:107F0000A601A0E0B1E02C9130E011968C91119780
:107F100090E0982F8827822B932B1296FA010C0160
:107F200087BEE89511244E5F5F4FF1E0A038BF0790
:107F300051F7F601A7BEE89507B600FCFDCF97BE46
:107F4000E89526C08437B1F42ED02DD0F82E2BD052
:107F50003CD0F601EF2C8F010F5F1F4F84911BD097
:107F6000EA94F801C1F70894C11CD11CFA94CF0C13
:107F7000D11C0EC0853739F428D08EE10CD085E9AC
:107F80000AD08FE07ACF813511F488E018D01DD067
:107F900080E101D065CF982F8091C00085FFFCCF94
:107FA0009093C60008958091C00087FFFCCF809118
:107FB000C00084FD01C0A8958091C6000895E0E648
:107FC000F0E098E1908380830895EDDF803219F02E
:107FD00088E0F5DFFFCF84E1DECF1F93182FE3DFCA
:107FE0001150E9F7F2DF1F91089580E0E8DFEE27F6
:047FF000FF270994CA
:027FFE00040479
:00000001FF
